S026000031322E4C43445F44594E414D49435F53494E5F574156455F535452494E472E7372656325
S11300000C942A000C9447000C9447000C9447006D
S11300100C9447000C9447000C9447000C94470040
S11300200C9447000C9447000C9447000C94470030
S11300300C9447000C9447000C9447000C94470020
S11300400C9447000C9447000C9447000C94470010
S11300500C94470011241FBECFE5D8E0DEBFCDBF0E
S113006010E0A0E6B0E0E2E3F6E002C005900D92F5
S1130070AE36B107D9F710E0AEE6B0E001C01D928C
S1130080AE36B107E1F70E9449000C9417030C94B3
S11300900000CF93DF93CDB7DEB72D970FB6F8945A
S11300A0DEBF0FBECDBF80E064E041E00E9490005F
S11300B080E065E041E00E94900080E066E041E07D
S11300C00E94900080E067E041E00E94900081E09F
S11300D061E041E00E94900081E062E041E00E9422
S11300E0900081E063E041E00E9490000E94B3022E
S11300F0DE011196E0E6F0E08DE001900D92815072
S1130100E1F7CE0101960E94E80200E10E94070394
S1130110102F0E940B030E940F031150D1F7F6CF4A
S1130120683008F081C0413009F03EC08130A9F048
S1130130813030F08230F1F0833009F075C027C08F
S11301402AB381E090E0AC0102C0440F551F6A95C8
S1130150E2F7BA01622B6ABB089527B381E090E00D
S1130160AC0102C0440F551F6A95E2F7BA01622B35
S113017067BB089524B381E090E0AC0102C0440F52
S1130180551F6A95E2F7BA01622B64BB089521B347
S113019081E090E0AC0102C0440F551F6A95E2F77C
S11301A0BA01622B61BB08958130A9F0813028F037
S11301B08230F9F08330C1F52AC02AB381E090E09F
S11301C0AC0102C0440F551F6A95E2F7BA0160956D
S11301D062236ABB089527B381E090E0AC0102C0BA
S11301E0440F551F6A95E2F7BA016095622367BB15
S11301F0089524B381E090E0AC0102C0440F551F80
S11302006A95E2F7BA016095622364BB089521B34D
S113021081E090E0AC0102C0440F551F6A95E2F7FB
S1130220BA016095622361BB0895683008F081C00B
S1130230413009F03EC08130A9F0813030F0823085
S1130240F1F0833009F075C027C02BB381E090E052
S1130250AC0102C0440F551F6A95E2F7BA01622B44
S11302606BBB089528B381E090E0AC0102C0440F59
S1130270551F6A95E2F7BA01622B68BB089525B34E
S113028081E090E0AC0102C0440F551F6A95E2F78B
S1130290BA01622B65BB089522B381E090E0AC0102
S11302A002C0440F551F6A95E2F7BA01622B62BB84
S11302B008958130A9F0813028F08230F9F083303C
S11302C0C1F52AC02BB381E090E0AC0102C0440F19
S11302D0551F6A95E2F7BA01609562236BBB0895D6
S11302E028B381E090E0AC0102C0440F551F6A9529
S11302F0E2F7BA016095622368BB089525B381E0F3
S113030090E0AC0102C0440F551F6A95E2F7BA01B0
S11303106095622365BB089522B381E090E0AC014F
S113032002C0440F551F6A95E2F7BA016095622333
S113033062BB0895683008F03CC08130A1F0813080
S113034028F08230E9F08330A1F527C02BB381E097
S113035090E0AC0102C0440F551F6A95E2F7BA0160
S113036062276BBB089528B381E090E0AC0102C022
S1130370440F551F6A95E2F7BA01622768BB0895D6
S113038025B381E090E0AC0102C0440F551F6A958B
S1130390E2F7BA01622765BB089522B381E090E0D9
S11303A0AC0102C0440F551F6A95E2F7BA016227F7
S11303B062BB0895683098F5813089F0813028F067
S11303C08230B9F0833049F51EC029B330E0C90149
S11303D002C0959587956A95E2F78170089526B3D2
S11303E030E0C90102C0959587956A95E2F781705E
S11303F0089523B330E0C90102C0959587956A95A5
S1130400E2F78170089520B330E0C90102C09595E8
S113041087956A95E2F78170089580E008950895BC
S1130420813049F0813028F0823039F0833041F452
S113043006C06ABB089567BB089564BB089561BB99
S11304400895813049F0813028F0823039F08330CA
S113045041F406C06BBB089568BB089565BB08955D
S113046062BB0895CF92DF92EF92FF920F931F9396
S1130470CF93DF9300D000D0CDB7DEB794E099835B
S113048095E09A8396E09B8397E09C837E01089491
S1130490E11CF11C00E010E0C82EDD24F70161919D
S11304A07F01A601002E02C0559547950A94E2F7F4
S11304B0417080E00E9415010F5F1F4F0430110549
S11304C069F70F900F900F900F90DF91CF911F91CC
S11304D00F91FF90EF90DF90CF90089581E063E05B
S11304E041E00E9415018FE39FE10197F1F700C0FD
S11304F0000081E063E040E00E9415010895CF937D
S1130500C82F81E061E041E00E94150181E062E0D2
S113051040E00E9415018C2F82958F700E94320258
S11305200E946E028C2F0E9432020E946E02CF91B2
S11305300895CF93C82F81E061E040E00E94150147
S113054081E062E040E00E9415018C2F82958F705B
S11305500E9432020E946E028C2F0E9432020E947C
S11305606E02CF9108958FEF93EFA1E081509040F8
S1130570A040E1F700C0000082E00E9432020E9425
S11305806E0282E00E9432020E946E0288E00E94A3
S113059032020E946E028CE00E94990281E00E9465
S11305A0990208950F931F93CF938C01FC018081CE
S11305B0882351F0C0E00E947F02CF5FF801EC0F66
S11305C0F11D80818823B9F7CF911F910F91089570
S11305D00F931F93CF938C01DC018C91882399F0A6
S11305E0C0E00E947F028FEF95EAAEE08150904018
S11305F0A040E1F700C00000CF5FF801EC0FF11D4F
S11306008081882371F7CF911F910F91089581E024
S11306100E949902089580EC0E94990208958CE149
S11306200E949902089588E10E9499020895F8941D
S1050630FFCFF6
S11106325361616420456C2044696E650000CC
S9030000FC
