S0230000382E5357495443485F4C4544315F4C4544325F4C4544335F4F46462E737265635D
S11300000C942A000C9447000C9447000C9447006D
S11300100C9447000C9447000C9447000C94470040
S11300200C9447000C9447000C9447000C94470030
S11300300C9447000C9447000C9447000C94470020
S11300400C9447000C9447000C9447000C94470010
S11300500C94470011241FBECFE5D8E0DEBFCDBF0E
S113006010E0A0E6B0E0E0EDF3E002C005900D92F0
S1130070A036B107D9F710E0A0E6B0E001C01D92A8
S1130080A036B107E1F70E9449000C94E6010C94F4
S1130090000081E060E040E00E94A60082E062E0AF
S11300A041E00E94A60082E067E041E00E94A600D1
S11300B083E063E041E00E94A600C0E0D0E0C430E9
S11300C008F0CD2F81E06D2F0E94B0018130B9F787
S11300D08FEF91EEA4E081509040A040E1F700C082
S11300E00000C13069F0C13028F0C23079F0C3306B
S11300F011F512C082E062E041E00E942B011BC0B6
S113010082E067E041E00E942B0115C083E063E0D8
S113011041E00E942B010FC082E062E04D2F0E945B
S11301202B0183E063E04D2F0E942B0182E067E006
S11301304D2F0E942B01CF5F8FEF91EEA4E08150F1
S11301409040A040E1F700C00000B9CF683008F04B
S113015081C0413009F03EC08130A9F0813030F0D7
S11301608230F1F0833009F075C027C02AB381E0F2
S113017090E0AC0102C0440F551F6A95E2F7BA0142
S1130180622B6ABB089527B381E090E0AC0102C002
S1130190440F551F6A95E2F7BA01622B67BB0895B5
S11301A024B381E090E0AC0102C0440F551F6A956E
S11301B0E2F7BA01622B64BB089521B381E090E0B9
S11301C0AC0102C0440F551F6A95E2F7BA01622BD5
S11301D061BB08958130A9F0813028F08230F9F0B4
S11301E08330C1F52AC02AB381E090E0AC0102C09B
S11301F0440F551F6A95E2F7BA01609562236ABB02
S1130200089527B381E090E0AC0102C0440F551F6C
S11302106A95E2F7BA016095622367BB089524B337
S113022081E090E0AC0102C0440F551F6A95E2F7EB
S1130230BA016095622364BB089521B381E090E024
S1130240AC0102C0440F551F6A95E2F7BA016095EC
S1130250622361BB0895683008F081C0413009F021
S11302603EC08130A9F0813030F08230F1F083302B
S113027009F075C027C02BB381E090E0AC0102C047
S1130280440F551F6A95E2F7BA01622B6BBB0895C0
S113029028B381E090E0AC0102C0440F551F6A9579
S11302A0E2F7BA01622B68BB089525B381E090E0C0
S11302B0AC0102C0440F551F6A95E2F7BA01622BE4
S11302C065BB089522B381E090E0AC0102C0440F05
S11302D0551F6A95E2F7BA01622B62BB089581301B
S11302E0A9F0813028F08230F9F08330C1F52AC0BA
S11302F02BB381E090E0AC0102C0440F551F6A9516
S1130300E2F7BA01609562236BBB089528B381E0DC
S113031090E0AC0102C0440F551F6A95E2F7BA01A0
S11303206095622368BB089525B381E090E0AC0139
S113033002C0440F551F6A95E2F7BA016095622323
S113034065BB089522B381E090E0AC0102C0440F84
S1130350551F6A95E2F7BA016095622362BB08955E
S1130360683098F5813089F0813028F08230B9F016
S1130370833049F51EC029B330E0C90102C0959508
S113038087956A95E2F78170089526B330E0C90134
S113039002C0959587956A95E2F78170089523B315
S11303A030E0C90102C0959587956A95E2F781709E
S11303B0089520B330E0C90102C0959587956A95E8
S11303C0E2F78170089580E008950895F894FFCFCE
S9030000FC
