:100000000C942A000C9447000C9447000C94470071
:100010000C9447000C9447000C9447000C94470044
:100020000C9447000C9447000C9447000C94470034
:100030000C9447000C9447000C9447000C94470024
:100040000C9447000C9447000C9447000C94470014
:100050000C94470011241FBECFE5D8E0DEBFCDBF12
:1000600010E0A0E6B0E0E2EFF0E002C005900D92F3
:10007000A036B107D9F710E0A0E6B0E001C01D92AC
:10008000A036B107E1F70E9449000C9477000C9468
:100090000000D49AD59AD69AD79AB99AC19A80E094
:1000A00090E040E050E00FEF19E628E101501040E9
:1000B0002040E1F700C000006BB39C01229532950F
:1000C000307F3227207F3227362F3F70232B2BBBE8
:1000D0000FEF19E628E1015010402040E1F700C081
:1000E000000001968A309105F4F2CA01DCCFF89441
:0200F000FFCF40
:00000001FF
