:100000000C942A000C9447000C9447000C94470071
:100010000C9447000C9447000C9447000C94470044
:100020000C9447000C9447000C9447000C94470034
:100030000C9447000C9447000C9447000C94470024
:100040000C9447000C9447000C9447000C94470014
:100050000C94470011241FBECFE5D8E0DEBFCDBF12
:1000600010E0A0E6B0E0E8E0F7E002C005900D92F5
:10007000A036B107D9F710E0A0E6B0E001C01D92AC
:10008000A036B107E1F70E94A5010C9482030C94FD
:100090000000683008F081C0413009F03EC0813076
:1000A000A9F0813030F08230F1F0833009F075C072
:1000B00027C02AB381E090E0AC0102C0440F551F75
:1000C0006A95E2F7BA01622B6ABB089527B381E013
:1000D00090E0AC0102C0440F551F6A95E2F7BA01E7
:1000E000622B67BB089524B381E090E0AC0102C0AD
:1000F000440F551F6A95E2F7BA01622B64BB08955D
:1001000021B381E090E0AC0102C0440F551F6A9515
:10011000E2F7BA01622B61BB08958130A9F081300A
:1001200028F08230F9F08330C1F52AC02AB381E08B
:1001300090E0AC0102C0440F551F6A95E2F7BA0186
:10014000609562236ABB089527B381E090E0AC011B
:1001500002C0440F551F6A95E2F7BA016095622309
:1001600067BB089524B381E090E0AC0102C0440F66
:10017000551F6A95E2F7BA016095622364BB089542
:1001800021B381E090E0AC0102C0440F551F6A9595
:10019000E2F7BA016095622361BB0895413009F02E
:1001A0003EC08130A9F0813030F08230F1F08330F0
:1001B00009F075C027C02BB381E090E0AC0102C00C
:1001C000440F551F6A95E2F7BA01622B6BBB089585
:1001D00028B381E090E0AC0102C0440F551F6A953E
:1001E000E2F7BA01622B68BB089525B381E090E085
:1001F000AC0102C0440F551F6A95E2F7BA01622BA9
:1002000065BB089522B381E090E0AC0102C0440FC9
:10021000551F6A95E2F7BA01622B62BB08958130DF
:10022000A9F0813028F08230F9F08330C1F52AC07E
:100230002BB381E090E0AC0102C0440F551F6A95DA
:10024000E2F7BA01609562236BBB089528B381E0A1
:1002500090E0AC0102C0440F551F6A95E2F7BA0165
:100260006095622368BB089525B381E090E0AC01FE
:1002700002C0440F551F6A95E2F7BA0160956223E8
:1002800065BB089522B381E090E0AC0102C0440F49
:10029000551F6A95E2F7BA016095622362BB089523
:1002A000813089F0813028F08230B9F0833049F50F
:1002B0001EC029B330E0C90102C0959587956A95A3
:1002C000E2F78170089526B330E0C90102C0959528
:1002D00087956A95E2F78170089523B330E0C901EC
:1002E00002C0959587956A95E2F78170089520B3CD
:1002F00030E0C90102C0959587956A95E2F7817053
:10030000089580E00895813049F0813028F08230EE
:1003100039F0833041F406C06ABB089567BB089585
:1003200064BB089561BB0895813049F0813028F0A5
:10033000823039F0833041F406C06BBB089568BB4E
:10034000089565BB089562BB089580E060E041E0D8
:100350000E94490080E060E041E00E94CE0088EC0D
:1003600090E00E94C30180E060E040E00E94CE0087
:1003700088EC90E00E94C301EDCF83B7816083BF1A
:10038000089513BE08950F931F93CF93DF93BC017D
:1003900080E090E00E94690220E030E04AE752E409
:1003A0000E94F7020E943D028B019C0112BE611562
:1003B000710581F0C0E0D0E00E94BD0108B600FEEA
:1003C000FDCF88B7816088BF0E94C1012196C01708
:1003D000D10791F7DF91CF911F910F910895CF929F
:1003E000DF92EF92FF920F931F93CF93DF93BC01A5
:1003F00080E090E00E94690220E030E040E85DE3A8
:100400000E94F702C62ED72EE82EF92E12BE862F96
:100410009D2DAE2DBF2DBC01CD0120E030E0A90106
:100420000E94F3021816E4F4C0E0D0E00E94BD017F
:1004300008B600FEFDCF88B7816088BF0E94C10169
:100440002196BE0180E090E00E9469020C2D1D2DD6
:100450002E2D3F2DA90198010E943902882334F3E3
:10046000DF91CF911F910F91FF90EF90DF90CF9090
:1004700008956CD008F481E0089594D088F09F57D7
:1004800090F0B92F9927B751A0F0D1F0660F771FE0
:10049000881F991F1AF0BA95C9F712C0B13081F0C0
:1004A0009BD0B1E0089598C0672F782F8827B85F58
:1004B00039F0B93FCCF3869577956795B395D9F721
:1004C0003EF490958095709561957F4F8F4F9F4F2B
:1004D0000895E89409C097FB3EF490958095709537
:1004E00061957F4F8F4F9F4F9923A9F0F92F96E980
:1004F000BB279395F695879577956795B795F111F5
:10050000F8CFFAF4BB0F11F460FF1BC06F5F7F4F91
:100510008F4F9F4F16C0882311F096E911C07723A3
:1005200021F09EE8872F762F05C0662371F096E8AC
:10053000862F70E060E02AF09A95660F771F881F7B
:10054000DAF7880F9695879597F90895990F00081F
:10055000550FAA0BE0E8FEEF16161706E807F90795
:10056000C0F012161306E407F50798F0621B730B30
:10057000840B950B39F40A2661F0232B242B252BB1
:1005800021F408950A2609F4A140A6958FEF811D54
:10059000811D089557FD9058440F551F59F05F3F36
:1005A00071F04795880F97FB991F61F09F3F79F095
:1005B00087950895121613061406551FF2CF469517
:1005C000F1DF08C0161617061806991FF1CF869599
:1005D0007105610508940895E894BB27662777277D
:1005E000CB0197F90895B2DF08F48FEF08950BD08F
:1005F00078C069D028F06ED018F0952309F05AC061
:100600005FC01124EACFC6DFA0F3959FD1F3950F09
:1006100050E0551F629FF001729FBB27F00DB11D86
:10062000639FAA27F00DB11DAA1F649F6627B00D16
:10063000A11D661F829F2227B00DA11D621F739FFF
:10064000B00DA11D621F839FA00D611D221F749F0D
:100650003327A00D611D231F849F600D211D822F54
:10066000762F6A2F11249F5750408AF0E1F088239B
:100670004AF0EE0FFF1FBB1F661F771F881F9150A8
:100680005040A9F79E3F510570F014C0A6CF5F3FC0
:10069000ECF3983EDCF3869577956795B795F795DB
:1006A000E7959F5FC1F7FE2B880F911D9695879563
:1006B00097F9089597F99F6780E870E060E00895E2
:1006C0009FEF80EC089500240A941616170618066A
:1006D0000906089500240A94121613061406050646
:1006E0000895092E0394000C11F4882352F0BB0FD7
:1006F00040F4BF2B11F460FF04C06F5F7F4F8F4F3A
:080700009F4F0895F894FFCF0C
:00000001FF
