S01A000045787465726E616C5F496E746572727570742E737265639B
S11300000C942A000C9445010C943C000C943C0084
S11300100C943C000C943C000C943C000C943C006C
S11300200C943C000C943C000C943C000C943C005C
S11300300C943C000C943C000C943C000C943C004C
S11300400C943C000C943C000C943C000C943C003C
S11300500C943C0011241FBECFE5D8E0DEBFCDBF19
S113006020E0A0E6B0E001C01D92A236B207E1F79D
S11300700E9426010C949C010C940000683008F046
S11300806DC04130A1F5813089F028F08230C9F08B
S1130090833011F108952AB381E090E002C0880F03
S11300A0991F6A95E2F7822B8ABB089527B381E0F2
S11300B090E002C0880F991F6A95E2F7822B87BBF4
S11300C0089524B381E090E002C0880F991F6A95D7
S11300D0E2F7822B84BB089521B381E090E002C053
S11300E0880F991F6A95E2F7822B81BB08958130AE
S11300F091F028F08230D9F0833029F108952AB3A1
S113010081E090E002C0880F991F6A95E2F780951C
S113011082238ABB089527B381E090E002C0880F50
S1130120991F6A95E2F78095822387BB089524B3CB
S113013081E090E002C0880F991F6A95E2F78095EC
S1130140822384BB089521B381E090E002C0880F2C
S1130150991F6A95E2F78095822381BB08956830E0
S113016008F06DC04130A1F5813089F028F082306B
S1130170C9F0833011F108952BB381E090E002C0FF
S1130180880F991F6A95E2F7822B8BBB089528B3D9
S113019081E090E002C0880F991F6A95E2F7822BF4
S11301A088BB089525B381E090E002C0880F991FB1
S11301B06A95E2F7822B85BB089522B381E090E033
S11301C002C0880F991F6A95E2F7822B82BB0895BB
S11301D0813091F028F08230D9F0833029F10895EC
S11301E02BB381E090E002C0880F991F6A95E2F773
S11301F0809582238BBB089528B381E090E002C0F0
S1130200880F991F6A95E2F78095822388BB089529
S113021025B381E090E002C0880F991F6A95E2F748
S11302208095822385BB089522B381E090E002C0CB
S1130230880F991F6A95E2F78095822382BB0895FF
S113024041E062E082E00E94AF00089541E062E094
S113025082E00E943E0041E067E082E00E943E00AE
S113026041E063E082E00E943E000E946C010E9433
S11302707E010E94900180E291E00E944001FFCF44
S1130280909361008093600008951F920F920FB6BF
S11302900F9211242F933F934F935F936F937F9308
S11302A08F939F93AF93BF93EF93FF93E09160007D
S11302B0F09161000995FF91EF91BF91AF919F91EA
S11302C08F917F916F915F914F913F912F910F90FB
S11302D00FBE0F901F90189540E062E083E00E94EB
S11302E03E0085B7816085BF85B7826085BF8FB7C3
S11302F080688FBF8BB780648BBF089540E063E054
S113030083E00E943E0085B7846085BF85B788601E
S113031085BF8FB780688FBF8BB780688BBF089508
S113032040E062E081E00E943E008FB780688FBFAA
S10F03308BB780628BBF0895F894FFCF58
S9030000FC
