S0150000362E545241464649435F5344442E7372656372
S11300000C942A000C9447000C9447000C9447006D
S11300100C9447000C9447000C9447000C94470040
S11300200C9447000C9447000C9447000C94470030
S11300300C9447000C9447000C9447000C94470020
S11300400C9447000C9447000C9447000C94470010
S11300500C94470011241FBECFE5D8E0DEBFCDBF0E
S113006010E0A0E6B0E0E4E3F1E002C005900D92F8
S1130070A036B107D9F710E0A0E6B0E001C01D92A8
S1130080A036B107E1F70E9449000C9498000C9443
S11300900000D49AD59AD69AD79AB99AC19ABA9A9C
S11300A08B9AA79AA29A80E090E0C2989C016BB3C5
S11300B0A90142955295507F5427407F5427562FCB
S11300C05F70452B4BBB4FEF53ED60E34150504005
S11300D06040E1F700C000002F5F3F4F2A30310538
S11300E031F7C29A9C016BB3A90142955295507F96
S11300F05427407F5427562F5F70452B4BBB4FEF3F
S113010053ED60E3415050406040E1F700C000000F
S11301102F5F3F4F2A30310531F7C2982FEF33ED6F
S113012040E3215030404040E1F700C00000BDCF23
S1070130F894FFCF6D
S9030000FC
