S01B000031302E4C43445F434F554E5445525F2D332D332E7372656309
S11300000C943D000C945A000C945A000C945A0021
S11300100C945A000C945A000C945A000C945A00F4
S11300200C945A000C945A000C945A000C945A00E4
S11300300C945A000C945A000C945A000C945A00D4
S11300400C945A000C945A000C945A000C945A00C4
S11300500C945A00B500BF00C900D300DD00E700CE
S1130060F100FB0005010F0116011D0124012B0104
S113007032013901400147014E0111241FBECFE571
S1130080D8E0DEBFCDBF10E0A0E6B0E0E0E7F7E0E7
S113009002C005900D92A036B107D9F710E0A0E692
S11300A0B0E001C01D92A036B107E1F70E945C00E8
S11300B00C94B6030C94000081E060E040E00E94E0
S11300C05E0180E064E041E00E945E0180E065E062
S11300D041E00E945E0180E066E041E00E945E0132
S11300E080E067E041E00E945E0181E061E041E080
S11300F00E945E0181E062E041E00E945E0181E0D5
S113010063E041E00E945E010E9481038DE20E944F
S11301104D0389E30E944D03C7EFD6EFC9300CF0BD
S1130120CD2F81E060E00E94A8028130B9F78FEF03
S113013091EEA4E081509040A040E1F700C000009F
S1130140CF5F8C2F992787FD9095A92FB92F0996FA
S11301508331910508F0A8C0865D9F4FFC01EE0F26
S1130160FF1F0590F491E02D099481E00E9467033C
S11301708DE20E944D0389E30E944D0395C081E006
S11301800E9467038DE20E944D0388E30E944D03A1
S11301908BC081E00E9467038DE20E944D0387E3D8
S11301A00E944D0381C081E00E9467038DE20E949A
S11301B04D0386E30E944D0377C081E00E946703EC
S11301C08DE20E944D0385E30E944D036DC081E0E2
S11301D00E9467038DE20E944D0384E30E944D0355
S11301E063C081E00E9467038DE20E944D0383E3B4
S11301F00E944D0359C081E00E9467038DE20E9472
S11302004D0382E30E944D034FC081E00E946703C7
S11302108DE20E944D0381E30E944D0345C081E0BD
S11302200E94670380E30E944D033EC081E00E9468
S1130230670381E30E944D0337C081E00E94670396
S113024082E30E944D0330C081E00E94670383E390
S11302500E944D0329C081E00E94670384E30E9449
S11302604D0322C081E00E94670385E30E944D0391
S11302701BC081E00E94670386E30E944D0314C003
S113028081E00E94670387E30E944D030DC081E073
S11302900E94670388E30E944D0306C081E00E9428
S11302A0670389E30E944D038FEF91EEA4E0815030
S11302B09040A040E1F700C0000030CF683008F063
S11302C081C0413009F03EC08130A9F0813030F066
S11302D08230F1F0833009F075C027C02AB381E081
S11302E090E0AC0102C0440F551F6A95E2F7BA01D1
S11302F0622B6ABB089527B381E090E0AC0102C091
S1130300440F551F6A95E2F7BA01622B67BB089543
S113031024B381E090E0AC0102C0440F551F6A95FC
S1130320E2F7BA01622B64BB089521B381E090E047
S1130330AC0102C0440F551F6A95E2F7BA01622B63
S113034061BB08958130A9F0813028F08230F9F042
S11303508330C1F52AC02AB381E090E0AC0102C029
S1130360440F551F6A95E2F7BA01609562236ABB90
S1130370089527B381E090E0AC0102C0440F551FFB
S11303806A95E2F7BA016095622367BB089524B3C6
S113039081E090E0AC0102C0440F551F6A95E2F77A
S11303A0BA016095622364BB089521B381E090E0B3
S11303B0AC0102C0440F551F6A95E2F7BA0160957B
S11303C0622361BB0895683008F081C0413009F0B0
S11303D03EC08130A9F0813030F08230F1F08330BA
S11303E009F075C027C02BB381E090E0AC0102C0D6
S11303F0440F551F6A95E2F7BA01622B6BBB08954F
S113040028B381E090E0AC0102C0440F551F6A9507
S1130410E2F7BA01622B68BB089525B381E090E04E
S1130420AC0102C0440F551F6A95E2F7BA01622B72
S113043065BB089522B381E090E0AC0102C0440F93
S1130440551F6A95E2F7BA01622B62BB08958130A9
S1130450A9F0813028F08230F9F08330C1F52AC048
S11304602BB381E090E0AC0102C0440F551F6A95A4
S1130470E2F7BA01609562236BBB089528B381E06B
S113048090E0AC0102C0440F551F6A95E2F7BA012F
S11304906095622368BB089525B381E090E0AC01C8
S11304A002C0440F551F6A95E2F7BA0160956223B2
S11304B065BB089522B381E090E0AC0102C0440F13
S11304C0551F6A95E2F7BA016095622362BB0895ED
S11304D0683008F03CC08130A1F0813028F08230CF
S11304E0E9F08330A1F527C02BB381E090E0AC01A3
S11304F002C0440F551F6A95E2F7BA0162276BBB2D
S1130500089528B381E090E0AC0102C0440F551F68
S11305106A95E2F7BA01622768BB089525B381E0C2
S113052090E0AC0102C0440F551F6A95E2F7BA018E
S1130530622765BB089522B381E090E0AC0102C05C
S1130540440F551F6A95E2F7BA01622762BB08950A
S1130550683098F5813089F0813028F08230B9F024
S1130560833049F51EC029B330E0C90102C0959516
S113057087956A95E2F78170089526B330E0C90142
S113058002C0959587956A95E2F78170089523B323
S113059030E0C90102C0959587956A95E2F78170AC
S11305A0089520B330E0C90102C0959587956A95F6
S11305B0E2F78170089580E008950895813049F04C
S11305C0813028F0823039F0833041F406C06ABBB0
S11305D0089567BB089564BB089561BB0895813095
S11305E049F0813028F0823039F0833041F406C07C
S11305F06BBB089568BB089565BB089562BB0895FD
S1130600CF92DF92EF92FF920F931F93CF93DF93DA
S113061000D000D0CDB7DEB794E0998395E09A83FB
S113062096E09B8397E09C837E010894E11CF11C77
S113063000E010E0C82EDD24F70161917F01A601DE
S1130640002E02C0559547950A94E2F7417080E068
S11306500E94E3010F5F1F4F0430110569F70F90EB
S11306600F900F900F90DF91CF911F910F91FF90FA
S1130670EF90DF90CF90089581E063E041E00E9425
S1130680E3018FE39FE10197F1F700C0000081E0EF
S113069063E040E00E94E3010895CF93C82F81E016
S11306A061E041E00E94E30181E062E040E00E94F9
S11306B0E3018C2F82958F700E9400030E943C03FB
S11306C08C2F0E9400030E943C03CF910895CF9386
S11306D0C82F81E061E040E00E94E30181E062E034
S11306E040E00E94E3018C2F82958F700E940003EA
S11306F00E943C038C2F0E9400030E943C03CF9174
S113070008958FEF93EFA1E081509040A040E1F76E
S113071000C0000082E00E9400030E943C0382E0CB
S11307200E9400030E943C0388E00E9400030E9490
S11307303C038CE00E94670381E00E9467030895F4
S11307400F931F93CF938C01FC018081882351F078
S1130750C0E00E944D03CF5FF801EC0FF11D8081D2
S11307608823B9F7CF911F910F910895F894FFCF83
S9030000FC
