S01F0000352E435553544F4D495A45445F5357495443485F4C45442E7372656336
S11300000C942A000C9447000C9447000C9447006D
S11300100C9447000C9447000C9447000C94470040
S11300200C9447000C9447000C9447000C94470030
S11300300C9447000C9447000C9447000C94470020
S11300400C9447000C9447000C9447000C94470010
S11300500C94470011241FBECFE5D8E0DEBFCDBF0E
S113006010E0A0E6B0E0EEECF0E002C005900D92E6
S1130070A036B107D9F710E0A0E6B0E001C01D92A8
S1130080A036B107E1F70E9449000C9465000C9476
S11300900000A29AAA98C09894E0B09BFECF2FEFDC
S11300A031EE44E0215030404040E1F700C0000010
S11300B085B3892785BB2FEF31EE44E021503040D2
S11100C04040E1F700C00000E8CFF894FFCF05
S9030000FC
