S01200004C43445F4452495645522E7372656314
S11300000C942A000C9447000C9447000C9447006D
S11300100C9447000C9447000C9447000C94470040
S11300200C9447000C9447000C9447000C94470030
S11300300C9447000C9447000C9447000C94470020
S11300400C9447000C9447000C9447000C94470010
S11300500C94470011241FBECFE5D8E0DEBFCDBF0E
S113006010E0A0E6B0E0E8E6F9E002C005900D92E9
S1130070A03AB107D9F710E0A0EAB0E001C01D92A0
S1130080A03AB107E1F70E94EB010C94B2040C947E
S11300900000683008F081C0413009F03EC0813072
S11300A0A9F0813030F08230F1F0833009F075C06E
S11300B027C02AB381E090E0AC0102C0440F551F71
S11300C06A95E2F7BA01622B6ABB089527B381E00F
S11300D090E0AC0102C0440F551F6A95E2F7BA01E3
S11300E0622B67BB089524B381E090E0AC0102C0A9
S11300F0440F551F6A95E2F7BA01622B64BB089559
S113010021B381E090E0AC0102C0440F551F6A9511
S1130110E2F7BA01622B61BB08958130A9F0813006
S113012028F08230F9F08330C1F52AC02AB381E087
S113013090E0AC0102C0440F551F6A95E2F7BA0182
S1130140609562236ABB089527B381E090E0AC0117
S113015002C0440F551F6A95E2F7BA016095622305
S113016067BB089524B381E090E0AC0102C0440F62
S1130170551F6A95E2F7BA016095622364BB08953E
S113018021B381E090E0AC0102C0440F551F6A9591
S1130190E2F7BA016095622361BB0895683008F004
S11301A081C0413009F03EC08130A9F0813030F087
S11301B08230F1F0833009F075C027C02BB381E0A1
S11301C090E0AC0102C0440F551F6A95E2F7BA01F2
S11301D0622B6BBB089528B381E090E0AC0102C0B0
S11301E0440F551F6A95E2F7BA01622B68BB089564
S11301F025B381E090E0AC0102C0440F551F6A951D
S1130200E2F7BA01622B65BB089522B381E090E066
S1130210AC0102C0440F551F6A95E2F7BA01622B84
S113022062BB08958130A9F0813028F08230F9F062
S11302308330C1F52AC02BB381E090E0AC0102C049
S1130240440F551F6A95E2F7BA01609562236BBBB0
S1130250089528B381E090E0AC0102C0440F551F1B
S11302606A95E2F7BA016095622368BB089525B3E5
S113027081E090E0AC0102C0440F551F6A95E2F79B
S1130280BA016095622365BB089522B381E090E0D2
S1130290AC0102C0440F551F6A95E2F7BA0160959C
S11302A0622362BB0895683008F03CC08130A1F03D
S11302B0813028F08230E9F08330A1F527C02BB3D8
S11302C081E090E0AC0102C0440F551F6A95E2F74B
S11302D0BA0162276BBB089528B381E090E0AC01BA
S11302E002C0440F551F6A95E2F7BA01622768BB42
S11302F0089525B381E090E0AC0102C0440F551F7E
S11303006A95E2F7BA01622765BB089522B381E0DA
S113031090E0AC0102C0440F551F6A95E2F7BA01A0
S1130320622762BB0895683098F5813089F0813086
S113033028F08230B9F0833049F51EC029B330E08B
S1130340C90102C0959587956A95E2F78170089571
S113035026B330E0C90102C0959587956A95E2F706
S11303608170089523B330E0C90102C09595879543
S11303706A95E2F78170089520B330E0C90102C0A4
S1130380959587956A95E2F78170089580E00895C0
S11303900895813049F0813028F0823039F083307B
S11303A041F406C06ABB089567BB089564BB089511
S11303B061BB0895813049F0813028F0823039F0F2
S11303C0833041F406C06BBB089568BB089565BBD8
S11303D0089562BB0895CF93DF93CDB7DEB7C054C1
S11303E0D0400FB6F894DEBF0FBECDBF80E064E00E
S11303F041E00E94490080E065E041E00E9449003C
S113040080E066E041E00E94490080E067E041E06E
S11304100E94490081E061E041E00E94490081E0DE
S113042062E041E00E94490081E063E041E00E9413
S113043049000E947903DE011196E0E6F0E088E0CD
S113044001900D928150E1F7DE011996E8E6F0E0A3
S113045088E001900D928150E1F7DE015196E0E7CA
S1130460F0E088E001900D928150E1F7DE015996A9
S1130470E8E7F0E088E001900D928150E1F7DE01B9
S11304809196E0E8F0E088E001900D928150E1F768
S1130490DE019996E8E8F0E088E001900D92815041
S11304A0E1F7DE01D196E0E9F0E088E001900D92F9
S11304B08150E1F7DE01D996E8E9F0E088E00190A7
S11304C00D928150E1F7CE01019660E00E947D0417
S11304D0CE01099661E00E947D04CE01419662E05E
S11304E00E947D04CE01499663E00E947D04CE0102
S11304F0819664E00E947D04CE01899665E00E94A5
S11305007D04CE01C19666E00E947D04CE01C996A9
S113051067E00E947D0480E20E94020383E00E945F
S1130520020382E00E94020381E00E9402030E940F
S1130530D40387E00E94020386E00E94020383E062
S11305400E94020385E00E94020384E00E940203E9
S11305508AEA96EEA6E9B1E081509040A040B0400E
S1130560D9F700000E94CD03D6CFCF92DF92EF924D
S1130570FF920F931F93CF93DF9300D000D0CDB79A
S1130580DEB794E0998395E09A8396E09B8397E0A5
S11305909C837E010894E11CF11C00E010E0C82E4D
S11305A0DD24F70161917F01A601002E02C055955B
S11305B047950A94E2F7417080E00E94CE000F5FF5
S11305C01F4F0430110569F70F900F900F900F9093
S11305D0DF91CF911F910F91FF90EF90DF90CF901B
S11305E0089581E063E041E00E94CE008FE39FE143
S11305F00197F1F700C0000081E063E040E00E9451
S1130600CE000895CF93C82F81E061E041E00E94BD
S1130610CE0081E062E040E00E94CE008C2F829503
S11306208F700E94B5020E94F1028C2F0E94B502C5
S11306300E94F102CF910895843049F1853048F445
S11306408130C9F0813098F08230C9F08330B1F53F
S11306501AC0873041F1883028F48530E1F08630C3
S113066069F51DC0883019F1893041F524C080E353
S11306700E940203089581E30E940203089582E325
S11306800E940203089583E30E940203089584E311
S11306900E940203089585E30E940203089586E3FD
S11306A00E940203089587E30E940203089588E3E9
S11306B00E940203089589E30E9402030895CF93E0
S11306C0C82F81E061E040E00E94CE0081E062E05A
S11306D040E00E94CE008C2F82958F700E94B5025C
S11306E00E94F1028C2F0E94B5020E94F102CF9168
S11306F008958FEF93EFA1E081509040A040E1F77F
S113070000C0000082E00E94B5020E94F10282E073
S11307100E94B5020E94F10288E00E94B5020E9484
S1130720F1028CE00E945F0381E00E945F03089560
S11307300F931F93CF938C01FC018081882351F088
S1130740C0E00E940203CF5FF801EC0FF11D80812D
S11307508823B9F7CF911F910F9108950F931F9399
S1130760CF938C01DC018C91882399F0C0E00E9426
S113077002038FEF95EAAEE081509040A040E1F78C
S113078000C00000CF5FF801EC0FF11D80818823C9
S113079071F7CF911F910F91089581E00E945F033B
S11307A080E80E945F03089580EC0E945F0308952F
S11307B08CE10E945F03089588E10E945F0308951D
S11307C0AF92BF92CF92DF92EF92FF920F931F935B
S11307D0CF93DF93CDB7DEB7382FADB6BEB688233F
S11307E021F480E00E941C0378C01816ACF520E0C8
S11307F04AE0642F0E9499042F5F8823D1F7022FC7
S1130800DDB6CEB68DB79EB7821B91090FB6F894AC
S11308109EBF0FBE8DBFEDB6FEB60894E11CF11C61
S11308202223B9F04AE0F701E20FF11D3197832F3B
S1130830642F0E94990490832150382FA1F710E06F
S1130840F701E10FF11D80810E941C031F5F101747
S1130850B9F7DDBECEBE41C03195C9F1832F20E08A
S11308604AE0642F0E9499042F5F8823D1F7022F56
S1130870CDB6DEB68DB79EB7821B91090FB6F8943C
S11308809EBF0FBE8DBFEDB6FEB60894E11CF11CF1
S11308902223F9F04AE0F701E20FF11D3197832F8B
S11308A0642F0E94990490832150382FA1F78DE280
S11308B00E94020310E0F701E10FF11D80810E9404
S11308C01C031F5F0117B9F7CDBEDEBE06C0CDB64F
S11308D0DEB68DE20E940203F7CF0FB6F894BEBED7
S11308E00FBEADBEDF91CF911F910F91FF90EF909E
S11308F0DF90CF90BF90AF9008950F931F93CF9345
S1130900DF93082F192F683078F4862F880F880F0B
S1130910880F805C0E945F03C02FD12F18E089915B
S11309200E9402031150D9F7DF91CF911F910F91CB
S1130930089587FB082E062687FD819567FD61953E
S113094005D00EF4919507FC81950895991B79E0E3
S113095004C0991F961708F0961B881F7A95C9F74B
S10B096080950895F894FFCF7F
S1130968000A1F1F0E0400000001051515151F00BD
S1130978000E08080E021F00000E010101011E00EE
S113098804040404040404000101010101011F001A
S11309980000010101011E0C0004111111110E00C7
S9030000FC
