:100000000C942A000C9447000C9447000C94470071
:100010000C9447000C9447000C9447000C94470044
:100020000C9447000C9447000C9447000C94470034
:100030000C9447000C9447000C9447000C94470024
:100040000C9447000C9447000C9447000C94470014
:100050000C94470011241FBECFE5D8E0DEBFCDBF12
:1000600010E0A0E6B0E0ECE8F7E002C005900D92E9
:10007000A037B107D9F710E0A0E7B0E001C01D92AA
:10008000A037B107E1F70E94EB010C94C4030C9474
:100090000000683008F081C0413009F03EC0813076
:1000A000A9F0813030F08230F1F0833009F075C072
:1000B00027C02AB381E090E0AC0102C0440F551F75
:1000C0006A95E2F7BA01622B6ABB089527B381E013
:1000D00090E0AC0102C0440F551F6A95E2F7BA01E7
:1000E000622B67BB089524B381E090E0AC0102C0AD
:1000F000440F551F6A95E2F7BA01622B64BB08955D
:1001000021B381E090E0AC0102C0440F551F6A9515
:10011000E2F7BA01622B61BB08958130A9F081300A
:1001200028F08230F9F08330C1F52AC02AB381E08B
:1001300090E0AC0102C0440F551F6A95E2F7BA0186
:10014000609562236ABB089527B381E090E0AC011B
:1001500002C0440F551F6A95E2F7BA016095622309
:1001600067BB089524B381E090E0AC0102C0440F66
:10017000551F6A95E2F7BA016095622364BB089542
:1001800021B381E090E0AC0102C0440F551F6A9595
:10019000E2F7BA016095622361BB0895683008F008
:1001A00081C0413009F03EC08130A9F0813030F08B
:1001B0008230F1F0833009F075C027C02BB381E0A5
:1001C00090E0AC0102C0440F551F6A95E2F7BA01F6
:1001D000622B6BBB089528B381E090E0AC0102C0B4
:1001E000440F551F6A95E2F7BA01622B68BB089568
:1001F00025B381E090E0AC0102C0440F551F6A9521
:10020000E2F7BA01622B65BB089522B381E090E06A
:10021000AC0102C0440F551F6A95E2F7BA01622B88
:1002200062BB08958130A9F0813028F08230F9F066
:100230008330C1F52AC02BB381E090E0AC0102C04D
:10024000440F551F6A95E2F7BA01609562236BBBB4
:10025000089528B381E090E0AC0102C0440F551F1F
:100260006A95E2F7BA016095622368BB089525B3E9
:1002700081E090E0AC0102C0440F551F6A95E2F79F
:10028000BA016095622365BB089522B381E090E0D6
:10029000AC0102C0440F551F6A95E2F7BA016095A0
:1002A000622362BB0895683008F03CC08130A1F041
:1002B000813028F08230E9F08330A1F527C02BB3DC
:1002C00081E090E0AC0102C0440F551F6A95E2F74F
:1002D000BA0162276BBB089528B381E090E0AC01BE
:1002E00002C0440F551F6A95E2F7BA01622768BB46
:1002F000089525B381E090E0AC0102C0440F551F82
:100300006A95E2F7BA01622765BB089522B381E0DE
:1003100090E0AC0102C0440F551F6A95E2F7BA01A4
:10032000622762BB0895683098F5813089F081308A
:1003300028F08230B9F0833049F51EC029B330E08F
:10034000C90102C0959587956A95E2F78170089575
:1003500026B330E0C90102C0959587956A95E2F70A
:100360008170089523B330E0C90102C09595879547
:100370006A95E2F78170089520B330E0C90102C0A8
:10038000959587956A95E2F78170089580E00895C4
:100390000895813049F0813028F0823039F083307F
:1003A00041F406C06ABB089567BB089564BB089515
:1003B00061BB0895813049F0813028F0823039F0F6
:1003C000833041F406C06BBB089568BB089565BBDC
:1003D000089562BB089580E064E041E00E94490016
:1003E00080E065E041E00E94490080E066E041E095
:1003F0000E94490080E067E041E00E94490081E0FE
:1004000061E041E00E94490081E062E041E00E9439
:10041000490081E063E041E00E9449000E946003DE
:100420000E942B020E9458022FEF33ED40E321502F
:1004300030404040E1F700C000000E942C038FEFE5
:1004400093EDA0E381509040A040E1F700C0000090
:100450000E94B403E7CF82E060E040E00E944900E0
:1004600082E061E040E00E94490082E062E040E01A
:100470000E94490082E063E040E00E94490082E07F
:1004800064E041E00E94490082E065E041E00E94B2
:10049000490082E066E041E00E94490082E067E0B6
:1004A00041E00E94490082E061E00E94DA01089583
:1004B0002F923F924F925F926F927F928F929F9274
:1004C000AF92BF92CF92DF92EF92FF920F931F9362
:1004D000CF93DF93CDB7DEB728970FB6F894DEBF82
:1004E0000FBECDBF198281E08A8382E08B8383E0D7
:1004F0008C8384E08D8385E08E8386E08F8387E024
:1005000088870F2EF5E06F2E7724F02D6C0E7D1E60
:10051000AA24BB24442455241501F301C1903F01B2
:1005200082E06C2D40E00E94CE007E010894E11C28
:10053000F11C8201F701D1907F0182E06D2D0E94B4
:100540009301882391F4F801EE0FFF1FEE0FFF1FB8
:10055000E20DF31DE05AFF4F008182E06D2D0E94F5
:1005600093018823D1F3802F11C00F5F1F4F0430F8
:10057000110501F782E06C2D41E00E94CE00089445
:10058000A11CB11CF4E0AF16B10431F628960FB6E9
:10059000F894DEBF0FBECDBFDF91CF911F910F91B9
:1005A000FF90EF90DF90CF90BF90AF909F908F9093
:1005B0007F906F905F904F903F902F900895CF92D3
:1005C000DF92EF92FF920F931F93CF93DF9300D0B0
:1005D00000D0CDB7DEB794E0998395E09A8396E09A
:1005E0009B8397E09C837E010894E11CF11C00E052
:1005F00010E0C82EDD24F70161917F01A601002ED5
:1006000002C0559547950A94E2F7417080E00E9438
:10061000CE000F5F1F4F0430110569F70F900F9048
:100620000F900F90DF91CF911F910F91FF90EF905E
:10063000DF90CF90089581E063E041E00E94CE001A
:100640008FE39FE10197F1F700C0000081E063E0D4
:1006500040E00E94CE000895CF93C82F81E061E072
:1006600041E00E94CE0081E062E040E00E94CE00C6
:100670008C2F82958F700E94DF020E941B038C2FAB
:100680000E94DF020E941B03CF910895CF93C82FD1
:1006900081E061E040E00E94CE0081E062E040E065
:1006A0000E94CE008C2F82958F700E94DF020E94E4
:1006B0001B038C2F0E94DF020E941B03CF91089521
:1006C0008FEF93EFA1E081509040A040E1F700C090
:1006D000000082E00E94DF020E941B0382E00E9471
:1006E000DF020E941B0388E00E94DF020E941B03BE
:1006F0008CE00E94460381E00E94460308950F9318
:100700001F93CF938C01FC018081882351F0C0E0BE
:100710000E942C03CF5FF801EC0FF11D808188232C
:10072000B9F7CF911F910F9108950F931F93CF9316
:100730008C01DC018C91882399F0C0E00E942C038D
:100740008FEF95EAAEE081509040A040E1F700C005
:100750000000CF5FF801EC0FF11D8081882371F755
:10076000CF911F910F91089581E00E944603089553
:1007700080EC0E94460308958CE10E944603089590
:0C07800088E10E9446030895F894FFCF22
:10078C003132334134353642373839432A302344F9
:00000001FF
