:100000000C942A000C9447000C9447000C94470071
:100010000C9447000C9447000C9447000C94470044
:100020000C9447000C9447000C9447000C94470034
:100030000C9447000C9447000C9447000C94470024
:100040000C9447000C9447000C9447000C94470014
:100050000C94470011241FBECFE5D8E0DEBFCDBF12
:1000600010E0A0E6B0E0EEECF0E002C005900D92EA
:10007000A036B107D9F710E0A0E6B0E001C01D92AC
:10008000A036B107E1F70E9449000C9465000C947A
:100090000000A29AA79A8B9AAA9AAF9A939A8FEF86
:1000A00093EDA0E381509040A040E1F700C0000034
:1000B000AA98AF9893988FEF93EDA0E3815090406A
:0E00C000A040E1F700C00000E7CFF894FFCFAA
:00000001FF
