:100000000C942A000C9434000C9434000C943400AA
:100010000C9434000C9434000C9434000C94340090
:100020000C9434000C9434000C9434000C94340080
:100030000C9434000C9434000C9434000C94340070
:100040000C9434000C9434000C9434000C94340060
:100050000C94340011241FBECFE5D8E0DEBFCDBF25
:100060000E9454000C9462000C94000085E080B95A
:10007000089584EA86BF86B70895880F83B96130F2
:1000800021F483B1816083B903C083B18E7F83B9CA
:1000900084E886BF86B7089583B984E886BF86B7AB
:1000A000089584E986BF08950E9436000E943900B1
:1000B00060E08EE10E943D0081E60E944C000E94BB
:0800C0005100F4CFF894FFCFCA
:00000001FF
