:100000000C942A000C9447000C9447000C94470071
:100010000C9447000C9447000C9447000C94470044
:100020000C9447000C9447000C9447000C94470034
:100030000C9447000C9447000C9447000C94470024
:100040000C9447000C9447000C9447000C94470014
:100050000C94470011241FBECFE5D8E0DEBFCDBF12
:1000600010E0A0E6B0E0ECEBF4E002C005900D92E9
:10007000A036B107D9F710E0A0E6B0E001C01D92AC
:10008000A036B107E1F70E9419020C945C020C94AF
:100090000000683008F081C0413009F03EC0813076
:1000A000A9F0813030F08230F1F0833009F075C072
:1000B00027C02AB381E090E0AC0102C0440F551F75
:1000C0006A95E2F7BA01622B6ABB089527B381E013
:1000D00090E0AC0102C0440F551F6A95E2F7BA01E7
:1000E000622B67BB089524B381E090E0AC0102C0AD
:1000F000440F551F6A95E2F7BA01622B64BB08955D
:1001000021B381E090E0AC0102C0440F551F6A9515
:10011000E2F7BA01622B61BB08958130A9F081300A
:1001200028F08230F9F08330C1F52AC02AB381E08B
:1001300090E0AC0102C0440F551F6A95E2F7BA0186
:10014000609562236ABB089527B381E090E0AC011B
:1001500002C0440F551F6A95E2F7BA016095622309
:1001600067BB089524B381E090E0AC0102C0440F66
:10017000551F6A95E2F7BA016095622364BB089542
:1001800021B381E090E0AC0102C0440F551F6A9595
:10019000E2F7BA016095622361BB0895683008F008
:1001A00081C0413009F03EC08130A9F0813030F08B
:1001B0008230F1F0833009F075C027C02BB381E0A5
:1001C00090E0AC0102C0440F551F6A95E2F7BA01F6
:1001D000622B6BBB089528B381E090E0AC0102C0B4
:1001E000440F551F6A95E2F7BA01622B68BB089568
:1001F00025B381E090E0AC0102C0440F551F6A9521
:10020000E2F7BA01622B65BB089522B381E090E06A
:10021000AC0102C0440F551F6A95E2F7BA01622B88
:1002200062BB08958130A9F0813028F08230F9F066
:100230008330C1F52AC02BB381E090E0AC0102C04D
:10024000440F551F6A95E2F7BA01609562236BBBB4
:10025000089528B381E090E0AC0102C0440F551F1F
:100260006A95E2F7BA016095622368BB089525B3E9
:1002700081E090E0AC0102C0440F551F6A95E2F79F
:10028000BA016095622365BB089522B381E090E0D6
:10029000AC0102C0440F551F6A95E2F7BA016095A0
:1002A000622362BB0895683008F03CC08130A1F041
:1002B000813028F08230E9F08330A1F527C02BB3DC
:1002C00081E090E0AC0102C0440F551F6A95E2F74F
:1002D000BA0162276BBB089528B381E090E0AC01BE
:1002E00002C0440F551F6A95E2F7BA01622768BB46
:1002F000089525B381E090E0AC0102C0440F551F82
:100300006A95E2F7BA01622765BB089522B381E0DE
:1003100090E0AC0102C0440F551F6A95E2F7BA01A4
:10032000622762BB0895683098F5813089F081308A
:1003300028F08230B9F0833049F51EC029B330E08F
:10034000C90102C0959587956A95E2F78170089575
:1003500026B330E0C90102C0959587956A95E2F70A
:100360008170089523B330E0C90102C09595879547
:100370006A95E2F78170089520B330E0C90102C0A8
:10038000959587956A95E2F78170089580E00895C4
:1003900008956130A9F4813051F0813028F0823025
:1003A00049F08330E9F409C08FEF8ABB08958FEFDD
:1003B00087BB08958FEF84BB08958FEF81BB0895AD
:1003C000813049F0813028F0823039F0833041F4B7
:1003D00006C01ABA089517BA089514BA089511BA42
:1003E00008956130A9F4813051F0813028F08230D5
:1003F00049F08330E9F409C08FEF8BBB08958FEF8C
:1004000088BB08958FEF85BB08958FEF82BB089559
:10041000813049F0813028F0823039F0833041F466
:1004200006C01BBA089518BA089515BA089512BAED
:10043000089581E00E94500281E00E945602C0E0CF
:10044000D0E000E010E08C2F0E9435028FEF92E5A3
:10045000A7E081509040A040E1F700C00000219645
:10046000CA30D10584F3E801EECFCF93C82F80E0E6
:1004700064E041E00E94490080E065E041E00E94C4
:10048000490080E066E041E00E94490080E067E0CA
:1004900041E00E944900C295C07FCBBBCF91089537
:1004A000482F81E061E00E94CE000895482F81E04E
:0C04B00062E00E94CE000895F894FFCF97
:00000001FF
